:400000000040002011000000010400000104000010B500F015FAC04610B512221A4B1A60302000F0E5FB194A194B1A60194A1A4B1A601A4B1A4A1A60B2210902194A11600B
:40004000194A1A60A4218901184A1160184A1A6080221206174B1A608022D202164B1A604122164B1A603F32154B1A60403A154B1A601549072000F017FB072000F008FB40
:400080000022124B1A6010BD300010400600008004010B4000BF1200040301400000014041FF00800004014080FF00800003014040FF008008010B4000010B405801014089
:4000C0005001014014010140310900000C020B4010B572B60122304B1A7000240FE02F486200131959000B00411889881A5AC31858880004104300F07DF90134E4B2012CA6
:40010000EDD926490C312648643000F049F9EE221202244B1A609922234B1A6099231B04224A1360224A1360224A1360224A234B1A600123224A1360224A136022490B78CD
:400140003C22934314221343DBB20B701F4A117816230B43DBB2137080221D4B1A608022D2031C4B1A6040221B4B1A60C02252031A4B1A60D8221201194B1A600223194A87
:4001800013603121184A1160184A1360FFF744FF00F020F910BDC0461C700F407416000074170000000302400007024000500F4010500F4030500F400400048458320F40BD
:4001C0002000104000800F4001700F4000700F40000004400800044000010440080104400803044000070440080704401807044010B5064C2378002B07D1054B002B02D0CD
:40020000044800E000BF0123237010BD480100200000000054160000084B10B5002B03D00749084800E000BF07480368002B00D110BD064B002BFBD09847F9E7000000009E
:400240004C01002054160000C00000200000000070B5064B1B78064D2C68631C2B6000F0D5FB64002C19A08070BDC04661000F406401002010B500F0B7F910BD70B596B03F
:4002800000F03CF900F0FEFB00F08EFC3F4800F02BFC62B6002400F021FC00F033FC00F047FCC307FBD50022394B1A6000F0C4FB00F0CCFB00F08EFB364D280000F0ACFBA2
:4002C000280000F09DFB00F09BF90028FBD100F0FFFB012000F09CF900F0A4FB0A28FBD800F0FCFB002000F093F9294B1B682A4A502102A800F07AFD02A8FFF7BBFF0021C7
:40030000012215E0531E224D5B00EB1804201B5E500028180425405F1B1AC220FF30834201DC002301E080231B06490819430132174B1B689A42E5DB022B01DC012001E055
:4003400000240020212B15DD0A0A0D0C0E0EFF231A400B4093430AD0FF231D402B00B34305D00C02FF231B021C402C4302E0002800D1002400912300084A502102A800F09E
:4003800035FD02A8FFF776FF85E7C0465102000064010020906500005816000068160000F0B50025002711E0BB00C658F3B2FF22964308E06A008A181478A41952782270D8
:4003C0000135013BDBB2002BF4D10137072FEBD9F0BDC0460323044A1360044A13600022034B1A607047C0463000304030003140000E3F4010B50A00002100F0EEFC10BD75
:4004000010B500F0B5FC03680C2B00D1FEE7FEE710B50300084A1068C318084A9A1A802A02DC054A136005E000F0A2FC0C2303600120404210BDC046C4000020700200206B
:4004400070B50F4E0F4D13E029686B68AC68002202E001C901C30432A242FAD1E868002202E0002102C304328242FAD11035013E002EE9D100F082FCFFF700FFFEE7C04603
:40048000010000008018000010B50E4A136801218B43136000230AE0032B03D89A000A49505800E009489900094A885001332F2BF2D9FFF70DFE034A116801230B43136003
:4004C00010BDC0460000104000000000010400000000002010B500F075F810BD10B500F01DF810BD10B5044A1368802109060B431360FFF7EFFF10BD0000274010B5064B01
:400500001B78002B04D1FFF7E9FF0122024B1A70FFF7E8FF10BDC04630020020154A164B1A600023154A13601549164A1160164A16490A6007201649086016490B600438D3
:400540001549086015490A60154A13600421154A1160154A1360154A1360154A1360154A1360154A1360154A13601268144B1A807047C046090000020000274040002740F1
:4005800003000A00480027400700008000032740040327401003274044002740000227400402274050002740880E2740C80E2740480F2740080F2740C80F2740880F2740BC
:4005C0003202002005490B68F0229343603A13430B60034B1A88034B1A6070470007024032020020880F274070B50500002402E000F0FAFA0134285D0028F9D170BDC046A6
:40060000024B1868C0090123184070470400044004490A68D2B240239A43800118401043086070470001044000230AE00D4A12683F210A400C49C95C8A4201D1033303E0DD
:4006400001332D2BF2D9032308490868084A02400A60084A944663441B78DBB2064A13607047C0462CFF0B40F817000000002240FFFFFFBFCDF1FF0F28FF0B40034B18681C
:400680008023DB05184000D001207047000022401F2318401E3B8340014A13607047C04600E100E001BE704770B504000D001F2802D90020FFF7F6FF1034A40080239B055F
:4006C0009C4664442068256070BDC04610B5040006E0084B586800F077FA074B9C46644480231B029C42F4D8024B9868604300F06BFA10BDC80000200080FFFF70B582B0F8
:4007000000F0C0F800285DD000F067FA050000230AE02D4A12683F210A402C49C95C8A4201D1033303E001332D2BF2D903230021274A1160274A1268D20606D1254802687C
:400740001F318A4313390A430260234C2168234A1140234A5A438023DB019C466244D20B013A5205520D0B001343A0225203134323601C4B1B680193302000F043FA1A4A1C
:4007800013688021C9050B4313602668174B1E40002407E00120FFF799FF1034A30533430D4A1360EE2CF5D90120FFF78FFFFF239B051E43084B1E60019A0A4B1A60280047
:4007C00000F00FFA02B070BD2CFF0B40F817000028FF0B4034FF0B400800224000F800C040420F003000104000002240FFFF3FC030B587B0040000F0F0F90500FFF73EFFE9
:40080000002803D0FFF710FF012100E00021104B1B6800930F4B1B680193033C0E4B1B5D02930E4B1B68039304AA0D4B04936B4605930C4B1A600C480C4A10601B6801291E
:4008400001D1FFF75BFF280000F0CBF907B030BD08010B4000010B40F817000030001040B6EA0000080010401700008004001040034B1868C0231B02184000D001207047F6
:4008800000010B40034B1B68002B01DA012000E0002070470000224010B500F09EF9044A1368C02109020B43136000F09AF910BD00010B4010B500F090F908490A68084B29
:4008C0001A408024E40122430A600A6813408022120213430B6000F084F910BD00010B40FF3FFFFF70B5050000F077F90400FFF7BFFF002803D0FFF7DDFF012100E0002116
:4009000008482840084A1568084B2B40184310601368012901D1FFF7BFFF200000F061F970BDC0460404040010020B40FBFBFBFF10B5244B1B685B0715D5234B5B685B07F0
:400940000ED5224B596A042001401F4C62688A4362605A6A82435A629B69002B00D098470420FFF7BFFF174B1B685B0518D5164B5B685B0510D5154B596A8022D2001140BD
:40098000114842688A434260596A114A0A405A62DB69002B00D098478020C000FFF7A2FF084B1B685B030CD5074B5B685B0304D5064B1B6A002B00D098478020C002FFF723
:4009C00091FF10BD10020B40DC00002034020020FFFBFFFF034A117880235B420B43DBB21370704771000F40014B18707047C04681000F40014B1878C0B2704761000F40F2
:400A0000014B18807047C04640100F40014B188880B2704780100F40014B18807047C04600100F40024B1B78024B188880B2704700000F4080100F4010B501E0FFF7E6FF5D
:400A4000FFF7D8FF0307F9D410BDC04610B50B4C2000FFF7D5FF2000FFF7DEFF00F0BDF8074A117810230B43DBB2137000F0B9F8FFF7E2FF0020FFF7B7FF10BD8F650000F1
:400A800091000F4010B5064B1B78002B04D1FFF7DDFF0122024B1A70FFF79CFF10BDC0465C020020014B18647047C0460000002010B5040000F091F8044A1368C0218B43A0
:400AC000A4011C43146000F08CF810BD00E400E00122014B1A60704700E100E00122014B1A60704780E100E010B50400FFF7F6FF2000FFF7D7FF0320FFF7DAFFFFF7E8FFC8
:400B000010BDC0460122014B1A60704780E200E0034A117880235B420B43DBB21370704772000F40014B18707047C04682000F40014B1878C0B2704762000F40014B187028
:400B40007047C04622000F40014B1878C0B2704742000F40014B18707047C04602000F4010B501E0FFF7F0FFFFF7E2FF0307F9D410BDC04610B54F20FFF7E0FF4F20FFF755
:400B8000E9FF00F02AF8074A117810230B43DBB2137000F026F8FFF7E3FF0020FFF7C2FF10BDC04692000F4010B5064B1B78002B04D1FFF7DFFF0122024B1A70FFF7A8FF4B
:400BC00010BDC0465D0200200230800803D00138FDD1C046C046C0467047EFF3108072B6704780F310887047044B1B681F221340082BF9D0024B18607047C04608022740DE
:400C00004002274070B50400FFF7E7FF0500102C05D8104A136803218B43136016E0202C07D80C490B6803229343023A13430B600CE0302C07D807490B6803229343013AAD
:400C400013430B6002E00020FFF72CFD2800FFF7C8FF70BD30001040002243088B4274D303098B425FD3030A8B4244D3030B8B4228D3030C8B420DD3FF22090212BA030CEA
:400C80008B4202D31212090265D0030B8B4219D300E0090AC30B8B4201D3CB03C01A5241830B8B4201D38B03C01A5241430B8B4201D34B03C01A5241030B8B4201D30B0339
:400CC000C01A5241C30A8B4201D3CB02C01A5241830A8B4201D38B02C01A5241430A8B4201D34B02C01A5241030A8B4201D30B02C01A5241CDD2C3098B4201D3CB01C01A35
:400D0000524183098B4201D38B01C01A524143098B4201D34B01C01A524103098B4201D30B01C01A5241C3088B4201D3CB00C01A524183088B4201D38B00C01A524143081B
:400D40008B4201D34B00C01A5241411A00D20146524110467047FFE701B5002000F006F802BDC0460029F7D076E770477047C046014B18687047C046440100200E4B70B56A
:400D800000251E000D4CE41AA410A54204D0AB00F35898470135F8E700F060FD084B00251E00084CE41AA410A54204D0AB00F35898470135F8E770BD681800006818000085
:400DC0006818000070180000002310B59A4203D0CC5CC4540133F9E710BD03008218934202D019700133FAE7704700000CB430B5164B9DB00C1E1D6804DA8B2301202B6060
:400E000040421DE0822302A99B008B810023029008619C4200D0631E8B604B6101235B42CB81209A21AB2800019300F073F8431C01DA8B232B60002C02D00023029A1370FB
:400E40001DB030BC08BC02B01847C04644010020F0B58E6885B007000C00039201939E4243D890238A89DB001A423ED003250969236801985B1A029363695D43EB0F5D19C3
:400E8000029B6D1001331B18AB4200D91D00530510D52900380000F037FB061E14D0029A2169FFF791FFA289194B134080221343A38112E02A00380000F086FB061E0CD196
:400EC0002169380000F0D4FA0C23402201203B60A38940421343A38117E0029B2661F61826606561019EED1AA560019BB34200D21E0032000399206800F0A5FA0020A3684C
:400F00009B1BA36023689E19266005B0F0BDC0467FFBFFFFF0B59FB0029005938B890F0016001B0610D50B69002B0DD1402100F0EBFA38603861002804D10C23029A01380E
:400F40001360D8E040237B61002306AD6B6120336B761033AB7634002378002B03D1A31B049312D003E0252BF9D00134F4E7A31B320039000298FFF76BFF431C00D1B4E0D5
:400F80006A69049B944663446B612378002B00D1ABE00122002352426A6002A95432521801342B60EB60AB601370AB65534E21780522300000F03CFA002807D00123801BF3
:400FC00083402A68013413432B60EFE72B68DA0604D55322202102A8121811701A0704D553222B2102A81218117022782A2A03D0099B00200A210EE0059A111D12680591CE
:40100000002A01DB099204E05242EA60022213432B6001340BE02278303A092A04D84B4301349B180120F6E7002800D0099323782E2B1ED163782A2B0AD1059B02341A1D12
:401040001B680592002B01DA01235B42079310E000230A201A0001346B6021783039092904D84243013452180123F6E7002B00D00792234E21780322300000F0D9F900288C
:4010800006D04023801B83402A68013413432B60217806221B48661C297600F0C9F9002812D0194B002B06D10722059B073393430833059314E005AB00933A00134B2900E6
:4010C000029800E000BF07E005AB00933A000F4B2900029800F08AF80390039B013304D06B69039A9B186B6135E7BB890B985B0601D5012040421FB0F0BDC04628180000FC
:401100002E1800003218000000000000510E0000F7B5170001938A680B6900900C00934200DA130022003B6043321278002A01D001333B6023689B0602D53B6802333B60A9
:40114000062523681D401ED0230043331B785A1E9341226892061CD53020E1184331087021005A1C45310978A2184332023311700FE022000123193201990098089EB047EC
:40118000431C0ED00135E3683A689B1A9D42F0DBDAE72200019943320098089DA847431C02D10120404220E006232068E1683A6803400025042B03D18D1AEB43DB171D4052
:4011C000A3682269934201DD9B1AED180027BD420AD0220001231A3201990098089EB047431CDED00137F2E70020FEBDF0B58BB006920A0043320793059004920A7E0C0042
:40120000109B6E2A00D1ABE011D8632A22D009D8002A00D1B5E0582A00D0C5E045310A70814A4FE0642A1DD0692A1BD0BCE0732A00D1AAE009D86F2A29D0702A00D0B3E058
:40124000202209680A43226037E0752A1FD0782A33D0A9E00E001A684236111D196013683370A4E021681A68080606D4490604D5111D19600023D55E02E0111D19601568AA
:40128000002D3BDA2D23049A6D42137036E021681A68080606D4490604D51568111D1960ADB202E0111D196015685F4B227E039308276F2A1DD00A271BE02200782145321F
:4012C00011705A4A19680392081D226818600D68100602D4500600D5ADB2D30702D520231A4322601027002D03D1202322689A4322602300002243331A7002E00A274A4B7D
:4013000003936368A360002B09DB0422216891432160002D05D1049E002B11D07BE0002D79D0049E28003900FFF71CFD039B013E5B5C280033703900FFF78EFC051EF1D1A5
:40134000082F09D12368DB0706D563682269934202DC3023013E3370049B9B1B23612BE009681A68080607D4490605D5111D19601368A28A1A8004E0111D19601368626934
:401380001A600023049E236116E01A68111D1960166800216268300000F04AF8002801D0801B6060636803E0260042363270012323610023049A1370079B09AA0093210049
:4013C000069B0598FFF7A4FE431C02D10120404227E02369320006990598079DA847431CF4D0236800259B070FD4099BE068984217DA180015E022000123193206990598C5
:40140000079EB047431CE1D00135E368099A9B1A9D42F0DBE9E72600039B42361B7833708EE70BB0F0BDC046391800004A180000C9B28218904204D003788B4202D001309F
:40144000F8E70020704710B5884202D98B18984201D3002305E09B1A013A08D3995C8154FAE7934203D0CC5CC4540133F9E710BD70B50500002944D00C1F2368002B00DA92
:40148000E418280000F0D8F81E4A13681100002B02D16360146031E0A3420DD92268A018834203D118685B688218226063600C6024E0A24203D813005A68002AF9D11E68C8
:4014C0009819A0420BD12168711858181960824214D110685268411819605A600EE0A04202D90C232B6009E021686018824203D1106852684118216062605C60280000F092
:401500009CF870BD64020020032370B5CD1C9D43083506000C2D01D20C2501E0002D01DBA94202D90C23336048E0300000F084F8234B1C681A002100002913D00B685B1B78
:401540000DD40B2B02D90B60CC181EE08C4202D1636813601AE04B6863600C0016E00C004968E9E7174C2368002B03D1300000F051F820602900300000F04CF8431C18D0A4
:401580000323C41C9C43A0420DD12560300000F054F8200007220B30231D9043C31A0ED05A42E2500BE0211A300000F033F8431CEBD10C233000336000F03FF8002070BD83
:4015C0006402002060020020F8B506000C001500002904D11100FFF797FF040018E0002A03D1FFF745FF2C0012E000F027F885420ED929003000FFF787FF071E07D0210073
:401600002A00FFF7E1FB21003000FFF731FF3C002000F8BD002370B5064C050008002360FEF7F6FE431C03D12368002B00D02B6070BDC04668020020704770470B1F1A68F8
:40164000101F002A04DA891804390B68D01804387047000000000000696E746572727570742025640D0A000025782C2025780D0A0000000000300F40000400400F400004A7
:40168000810F820D4054420349FF4AFF4BFF4F0150185A045D015F016040624064406540668068806A806C806E8082049A01A801AA02AE05B001B201B402B604BE44C05453
:4016C000C203C5ECC602C807C9FFCAFFCBFFCD83CE03CF01D018D280D403D804DA04DB04DC01DD11DF01E040E240E440E540E680E880EA80EC80EE8006800E08140817A030
:401700001C901D081E081F403BC0401042804508468048014C024D044F0156805C105D045F41740377808840C010C240C4C0D0C3D218D6F0E6200C070E1014041648180222
:401740001A481C011E08281F2E2730183240342036073E044016410245EC4620480B49FF4AFF4BFF4F0150185280540158045A045B045C035D335F05604062406440654067
:40178000668068806A806C806E8004400D800E080F20140817801C401D801E081F08440845804D044F2157105D045F4177807C088B489808AF20C080C2E0C4C0D030D22039
:4017C000D6D0DE400F0468208820C280DA40AF04E840010A100A000002000F403A300F401F310F402A320F401D330F4005400F4002410F4002600F40030405060708090A88
:401800000B0C0E0F101112131415161718191B1C1D1E1F2021222325262728292A2B2E2F3031323334354300232D302B2000686C4C00656667454647003031323334353655
:4018400037383941424344454600303132333435363738396162636465660000F8B5C046F8BC08BC9E4670471902000089040000F8B5C046F8BC08BC9E467047F1010000A3
:4018800090180000C000002088000000280100000000000070020020010000000000C05D80BB000030000000006CDC02F0000000040404000000000000000000000000008E
:4018C00000000000000000000000000000000000000000002618000000000000000000000000000000000000000000000000000000000000000000000000000000000000AA
:401900000000000000000000000000000000000000000000E400002000000000000000000000000000000000000000000000000000000000000000000000000000000000A3
:401940000000000000000000000000000000000000000000000000000000000000000000000000000000000000000000000000000000000000000000000000000000000067
:401980000000000000000000000000000000000000000000000000000000000000000000000000000000000000000000000000000000000000000000000000000000000027
:4019C00000000000000000000000000000000000000000000000000000000000000000000000000000000000000000000000000000000000000000000000000000000000E7
:401A000000000000000000000000000000000000000000000000000000000000000000000000000000000000000000000000000000000000000000000000000000000000A6
:020000040001F9
:0200000490303A
:02000000E2BB61
:0200000490402A
:4000000000000000000000000000000000000000000000000000000000000000000000000000000000000000000000000000000000000000000000000000000000000000C0
:400040000000000000000000000000000000000000000000000000000000000000000000000000000000000000000000000000000000000000000000000000000000000080
:0200000490501A
:0C0000000002112D11A100011134F45C6C
:0200000490600A
:0100000001FE
:00000001FF