:400000000008002011000000650100006501000010B500F051F900F0ADF8C04610B5064C11232360182000F0F1F80422034B1A600023236010BDC0463000104028000340F0
:4000400010B572B6FF22044B1A60C93A034B1A60FFF7E4FF10BDC046000302400803044000000000000000000000000000000000000000000000000000000000000000009E
:400080000000000000000000000000000000000000000000000000000000000000000000000000000000000000000000000000000000000000000000000000000000000040
:4000C0000000000000000000000000000000000000000000000000000000000000000000000000000000000000000000000000000000000000000000000000000000000000
:4001000010B5064C2378002B07D1054B002B02D0044800E000BF0123237010BDD00000200000000044030000084B10B5002B03D00749084800E000BF07480368002B00D10C
:4001400010BD064B002BFBD09847F9E700000000D400002044030000680000200000000062B6FEE710B500F0C1F803680C2B00D1FEE7FEE770B50F4E0F4D13E029686B680C
:40018000AC68002202E001C901C30432A242FAD1E868002202E0002102C304328242FAD11035013E002EE9D100F0A6F8FFF7D8FFFEE7C046010000007003000010B50E4A72
:4001C000136801218B43136000230AE0032B03D89A000A49505800E009489900094A88500133182BF2D9FFF72BFF034A116801230B43136010BDC046000010400000000051
:40020000650100000000002001BE7047F8B50400182803D0202801D030283CD100F05EF805001F4A136807218B4313601D4BE3181B78DBB21C4A13601C4A13688B4313606A
:400240001B4803687F22934319001A4BE3181B7813400B430360322000F036F8182C16D90F4E33680727BB431A0023001C3B9B083B4013433360322000F026F83268BA43D0
:400280002300183B9B083C001C4014433460280000F028F802E00020FFF7B6FFF8BDC046080F0340CDF1FF0F0C0F0340100F0340180F0340B4F1FF0F014A024B1A60704736
:4002C0006588EDAC380003400230800804D0C0460138FDD1C046C046C0467047EFF3108072B6704780F310887047C046014B18687047C046CC0000200E4B70B500251E004A
:400300000D4CE41AA410A54204D0AB00F35898470135F8E700F01AF8084B00251E00084CE41AA410A54204D0AB00F35898470135F8E770BD5803000058030000580300008C
:40034000600300000000000043000000F8B5C046F8BC08BC9E46704729010000BD010000F8B5C046F8BC08BC9E4670470101000080030000680000206800000020000000CE
:4003800000000000000000000000000000000000000000000000000000000000000000000000000048030000000000000000000000000000000000000000000000000000F2
:4003C0000000000000000000000000000000000000000000000000000000000000000000000000006C00002000000000000000000000000000000000000000000000000071
:4004000000000000000000000000000000000000000000000000000000000000000000000000000000000000000000000000000000000000000000000000000000000000BC
:40044000000000000000000000000000000000000000000000000000000000000000000000000000000000000000000000000000000000000000000000000000000000007C
:40048000000000000000000000000000000000000000000000000000000000000000000000000000000000000000000000000000000000000000000000000000000000003C
:4004C00000000000000000000000000000000000000000000000000000000000000000000000000000000000000000000000000000000000000000000000000000000000FC
:0200000490303A
:02000000E7C84F
:0200000490402A
:200000000000000000000000000000000000000000000000000000000000000000000000E0
:0200000490501A
:0C00000000020A48119A00010A48F96247
:0200000490600A
:0100000001FE
:00000001FF