:400000000008002011000000190300001903000010B500F01FFB00F09FF9C04610B50B4C11232360202000F0BFFAEC229201084B1A60084A084B1A600422084B1A603C3248
:40004000074B1A600023236010BDC046300010400003014040FF008000000140280003400C01014010B572B690220C4B1A606F320B4B1A60EC3A0B4B1A600F3A0A4B1A60CF
:400080000A4A0B4B1A60D82252000A4B1A607B3AFF3A094B1A60FFF7C1FF10BD0000024000030240200105400000044088611B0008000440080104400803044000000000A5
:4000C0000000000000000000000000000000000000000000000000000000000000000000000000000000000000000000000000000000000000000000000000000000000000
:4001000010B5064C2378002B07D1054B002B02D0044800E000BF0123237010BDF000002000000000A0110000084B10B5002B03D00749084800E000BF07480368002B00D182
:4001400010BD064B002BFBD09847F9E700000000F4000020A0110000680000200000000070B5064B1B68064D2C68631C2B6000F0C1F964002C19A08070BDC0460401054085
:400180000C01002010B500F06FFA10BDF0B595B000F068FA00F0F6F9544800F04DF962B6002400F041F900F055F90022504B1A6000F0CEF900F0B4F94E4D280000F082F9DD
:4001C000280000F08FF9012000F05CFA00F024F900F080F90A28FBD8002000F053FA444B1B68454A5021684600F09CFB6846FFF7C9FF0023012117E04A1E3D4D5200AA182B
:400200000420125E480028180425405F121AC220FF30824201DC002201E0802212065B081343212904DC0131314A1668B142E3DB032E01DC012702E0012464420027212E27
:4002400018DD180A190C1D0EFF2216008643300016001E4070401140AA434A40024305D11C02FF22120214400C4303E0002F01D101246442214A5021684600F053FB6846C5
:40028000FFF780FF1E4D2BE022B2934227D1AB781B0705D5012000F0F1F81A48FFF772FFAB785B0705D5012000F000F91648FFF769FFAB789B0705D5012000F0D3F81348D5
:4002C000FFF760FFAB78DB0705D5012000F0E2F80F48FFF757FF0F48FFF754FF61E704350022AB5E002BCFD15BE7C046610100000C01002090650000CC110000DC1100008F
:40030000A4110000E4110000E8110000EC110000F0110000D811000010B500F0D7FA03680C2B00D1FEE7FEE710B50300084A1068C318084A9A1A802A02DC054A136005E0CE
:4003400000F0C4FA0C2303600120404210BDC0466C000020F001002070B50F4E0F4D13E029686B68AC68002202E001C901C30432A242FAD1E868002202E0002102C30432FA
:400380008242FAD11035013E002EE9D100F0A4FAFFF7FCFEFEE7C046010000005012000010B50E4A136801218B43136000230AE0032B03D89A000A49505800E00948990006
:4003C000094A88500133182BF2D9FFF74BFE034A116801230B43136010BDC04600001040000000001903000000000020014B18667047C0460000002010B5040000F05AF994
:40040000044A1368C0218B43A4011C43146000F055F910BD08E400E080225200014B1A607047C04600E100E080225200014B1A607047C04680E100E010B50400FFF7F4FF53
:400440002000FFF7D3FF0320FFF7D6FFFFF7E4FF10BDC04680225200014B1A607047C04680E200E004490A68D2B210239A43000118401043086070470000044004490A6820
:40048000D2B220239A43400118401043086070470000044004490A68D2B240239A43800118401043086070470000044004490A68D2B202239A4340001840104308607047E8
:4004C000000104400004000C014B18607047C04608010540024B18680004000C7047C046080105400004000C014B18607047C04614010540024B18680004000C7047C0466B
:400500000C01054070B504000D0000F0D3F8AC40024B1C6000F0D2F870BDC0460800054010B500F0C7F8064A116801230B43136000F0C4F818210120FFF7E4FF10BDC046B5
:4005400000000540014B18607047C0463801054010B5084A084B1A600D22084B1A600220FFF7F0FF064C2000FFF7BCFF2000FFF7A9FF10BD000701020001054024010540E8
:40058000FFFF000010B5064B1B78002B04D1FFF7DFFF0122024B1A70FFF7C2FF10BDC046D801002001BE7047F8B50400182803D0202801D030283CD100F07CF805001F4AB9
:4005C000136807218B4313601D4BE3181B78DBB21C4A13601C4A13688B4313601B4803687F22934319001A4BE3181B7813400B430360322000F054F8182C16D90F4E33688B
:400600000727BB431A0023001C3B9B083B4013433360322000F044F83268BA432300183B9B083C001C4014433460280000F046F802E00020FFF7B6FFF8BDC046080F03402A
:40064000CDF1FF0F0C0F0340100F0340180F0340B4F1FF0F014A024B1A6070476588EDAC380003407047C04670B505000078012404E000F035F8285D0134E4B20028F8D141
:4006800070BDC04604490A68D2B204239A438000184010430860704700010440000000000230800804D0C0460138FDD1C046C046C0467047EFF3108072B6704780F3108871
:4006C0007047C04600000000000000000000000000000000000000000000000000000000FEB5494652465B460EB407462E4909688A462E4A12682E48022100F05BF803002A
:400700002A480068C0182A4900F054F806001F3EB346234A126801219140C9430C0001250026FFF7C7FF814651460B6823400B6058460430FFF7B4FF3800F0402840904048
:400740000B68234003430B605846FFF7A9FF0136072EF1D900200130012090400B68234003430B6058460630FFF79AFF4846FFF7A5FFC046C046C0460EBC894692469B46C8
:40078000FEBDC046C046C046C046C046C046C046C046C046C046C046C046C046C046C04688000020DC010020840000208000002000C20100002243088B4274D303098B421E
:4007C0005FD3030A8B4244D3030B8B4228D3030C8B420DD3FF22090212BA030C8B4202D31212090265D0030B8B4219D300E0090AC30B8B4201D3CB03C01A5241830B8B4278
:4008000001D38B03C01A5241430B8B4201D34B03C01A5241030B8B4201D30B03C01A5241C30A8B4201D3CB02C01A5241830A8B4201D38B02C01A5241430A8B4201D34B020A
:40084000C01A5241030A8B4201D30B02C01A5241CDD2C3098B4201D3CB01C01A524183098B4201D38B01C01A524143098B4201D34B01C01A524103098B4201D30B01C01A3F
:400880005241C3088B4201D3CB00C01A524183088B4201D38B00C01A524143088B4201D34B00C01A5241411A00D20146524110467047FFE701B5002000F006F802BDC046B6
:4008C0000029F7D076E770477047C046014B18687047C046EC0000200E4B70B500251E000D4CE41AA410A54204D0AB00F35898470135F8E700F09AFC084B00251E00084CC1
:40090000E41AA410A54204D0AB00F35898470135F8E770BD381200003812000038120000401200000CB430B5164B9DB00C1E1D6804DA8B2301202B6040421DE0822302A9FA
:400940009B008B810023029008619C4200D0631E8B604B6101235B42CB81209A21AB2800019300F073F8431C01DA8B232B60002C02D00023029A13701DB030BC08BC02B060
:400980001847C046EC000020F0B58E6885B007000C00039201939E4243D890238A89DB001A423ED003250969236801985B1A029363695D43EB0F5D19029B6D1001331B188F
:4009C000AB4200D91D00530510D52900380000F041FB061E14D0029A216900F0D0FAA289194B134080221343A38112E02A00380000F090FB061E0CD12169380000F0DEFA0A
:400A00000C23402201203B60A38940421343A38117E0029B2661F61826606561019EED1AA560019BB34200D21E0032000399206800F0AEFA0020A3689B1BA36023689E198C
:400A4000266005B0F0BDC0467FFBFFFFF0B59FB0029005938B890F0016001B0610D50B69002B0DD1402100F0F5FA38603861002804D10C23029A01381360D8E040237B615A
:400A8000002306AD6B6120336B761033AB7634002378002B03D1A31B049312D003E0252BF9D00134F4E7A31B320039000298FFF76BFF431C00D1B4E06A69049B9446634411
:400AC0006B612378002B00D1ABE00122002352426A6002A95432521801342B60EB60AB601370AB65534E21780522300000F03CFA002807D00123801B83402A6801341343CB
:400B00002B60EFE72B68DA0604D55322202102A8121811701A0704D553222B2102A81218117022782A2A03D0099B00200A210EE0059A111D12680591002A01DB099204E0ED
:400B40005242EA60022213432B6001340BE02278303A092A04D84B4301349B180120F6E7002800D0099323782E2B1ED163782A2B0AD1059B02341A1D1B680592002B01DA3C
:400B800001235B42079310E000230A201A0001346B6021783039092904D84243013452180123F6E7002B00D00792234E21780322300000F0D9F9002806D04023801B8340DA
:400BC0002A68013413432B60217806221B48661C297600F0C9F9002812D0194B002B06D10722059B073393430833059314E005AB00933A00134B2900029800E000BF07E022
:400C000005AB00933A000F4B2900029800F08AF80390039B013304D06B69039A9B186B6135E7BB890B985B0601D5012040421FB0F0BDC046F6110000FC11000000120000FA
:400C40000000000089090000F7B5170001938A680B6900900C00934200DA130022003B6043321278002A01D001333B6023689B0602D53B6802333B60062523681D401ED0CA
:400C8000230043331B785A1E9341226892061CD53020E1184331087021005A1C45310978A2184332023311700FE022000123193201990098089EB047431C0ED00135E368F4
:400CC0003A689B1A9D42F0DBDAE72200019943320098089DA847431C02D10120404220E006232068E1683A6803400025042B03D18D1AEB43DB171D40A3682269934201DD8C
:400D00009B1AED180027BD420AD0220001231A3201990098089EB047431CDED00137F2E70020FEBDF0B58BB006920A0043320793059004920A7E0C00109B6E2A00D1ABE0B0
:400D400011D8632A22D009D8002A00D1B5E0582A00D0C5E045310A70814A4FE0642A1DD0692A1BD0BCE0732A00D1AAE009D86F2A29D0702A00D0B3E0202209680A4322603A
:400D800037E0752A1FD0782A33D0A9E00E001A684236111D196013683370A4E021681A68080606D4490604D5111D19600023D55E02E0111D19601568002D3BDA2D23049AC1
:400DC0006D42137036E021681A68080606D4490604D51568111D1960ADB202E0111D196015685F4B227E039308276F2A1DD00A271BE022007821453211705A4A19680392D9
:400E0000081D226818600D68100602D4500600D5ADB2D30702D520231A4322601027002D03D1202322689A4322602300002243331A7002E00A274A4B03936368A360002BED
:400E400009DB0422216891432160002D05D1049E002B11D07BE0002D79D0049E28003900FFF72EFD039B013E5B5C280033703900FFF7A0FC051EF1D1082F09D12368DB0757
:400E800006D563682269934202DC3023013E3370049B9B1B23612BE009681A68080607D4490605D5111D19601368A28A1A8004E0111D1960136862691A600023049E2361B4
:400EC00016E01A68111D1960166800216268300000F04AF8002801D0801B6060636803E0260042363270012323610023049A1370079B09AA00932100069B0598FFF7A4FEFB
:400F0000431C02D10120404227E02369320006990598079DA847431CF4D0236800259B070FD4099BE068984217DA180015E022000123193206990598079EB047431CE1D0B3
:400F40000135E368099A9B1A9D42F0DBE9E72600039B42361B7833708EE70BB0F0BDC0460712000018120000C9B28218904204D003788B4202D00130F8E7002070470023A7
:400F800010B59A4203D0CC5CC4540133F9E710BD10B5884202D98B18984201D3002305E09B1A013A08D3995C8154FAE7934203D0CC5CC4540133F9E710BD000070B5050070
:400FC000002944D00C1F2368002B00DAE418280000F0D8F81E4A13681100002B02D16360146031E0A3420DD92268A018834203D118685B688218226063600C6024E0A242BF
:4010000003D813005A68002AF9D11E689819A0420BD12168711858181960824214D110685268411819605A600EE0A04202D90C232B6009E021686018824203D1106852689C
:401040004118216062605C60280000F09CF870BDE4010020032370B5CD1C9D43083506000C2D01D20C2501E0002D01DBA94202D90C23336048E0300000F084F8234B1C687E
:401080001A002100002913D00B685B1B0DD40B2B02D90B60CC181EE08C4202D1636813601AE04B6863600C0016E00C004968E9E7174C2368002B03D1300000F051F820600D
:4010C0002900300000F04CF8431C18D00323C41C9C43A0420DD12560300000F054F8200007220B30231D9043C31A0ED05A42E2500BE0211A300000F033F8431CEBD10C23AB
:401100003000336000F03FF8002070BDE4010020E0010020F8B506000C001500002904D11100FFF797FF040018E0002A03D1FFF745FF2C0012E000F027F885420ED92900CB
:401140003000FFF787FF071E07D021002A00FFF716FF21003000FFF731FF3C002000F8BD002370B5064C050008002360FFF7DCF8431C03D12368002B00D02B6070BDC0467E
:40118000E8010020704770470B1F1A68101F002A04DA891804390B68D01804387047000000000000B1100200A01003002110010010100600201000008010090011100800E9
:4011C00000100C008110040000000000696E746572727570742025640D0A000025780D0A00000000424C200042522000464C2000465220004300232D302B2000686C4C00E3
:401200006566674546470030313233343536373839414243444546003031323334353637383961626364656600000000F8B5C046F8BC08BC9E46704729010000A103000012
:40124000F8B5C046F8BC08BC9E467047010100006012000068000020880000000001000000000000F0010020010000000000401F803E0000100000000024F4000000044088
:40128000020000000000000000000000000000000000000000000000000000000000000000000000F411000000000000000000000000000000000000000000000000000027
:4012C0000000000000000000000000000000000000000000000000000000000000000000000000008C00002000000000000000000000000000000000000000000000000042
:4013000000000000000000000000000000000000000000000000000000000000000000000000000000000000000000000000000000000000000000000000000000000000AD
:40134000000000000000000000000000000000000000000000000000000000000000000000000000000000000000000000000000000000000000000000000000000000006D
:40138000000000000000000000000000000000000000000000000000000000000000000000000000000000000000000000000000000000000000000000000000000000002D
:4013C00000000000000000000000000000000000000000000000000000000000000000000000000000000000000000000000000000000000000000000000000000000000ED
:0200000490303A
:02000000D83CEA
:0200000490402A
:200000000000000000000000000000000000000000000000000000000000000000000000E0
:0200000490501A
:0C00000000020A44119A00010A49E9D6E6
:0200000490600A
:0100000001FE
:00000001FF