:400000000010002011000000190400001904000010B500F021FAC04670B5194C23688022D20213432360182000F0EAFB2268154B13402360144A154B1A601022144B1A60FB
:400040000332144B1A600D32134B1A6080221206124B1A6000252560114A124B1A60124A124B1A60124A134B1A601349092000F0ABFB092000F09CFB104B1D6070BDC046B1
:4000800000010B40FFFFFBFF0600008004010B4008020240340202403C02024008010B401400008000000240BF5D0080400002405D00048000010240110A00000C020B4002
:4000C00010B572B60122284B1A7000240FE027486200131959000B00411889881A5AC31858880004104300F091F90134E4B2012CEDD91E490C311E48343000F06DF9EE2283
:4001000012021C4B1A6099221B4B1A6099231B041A4A13601A4A136001221A4B1A600221194B1960194803783B32934314221343DBB20370164A107816230343DBB2137082
:40014000F022144B1A60144A144B1A60D8221201134B1A60134B19603122134B1A60134B1960FFF759FF10BD1C700F4010160000101700000C0001401000014020500F40FF
:4001800030500F402000004000800F4001700F4000700F4000020440B66D4900080204400803044000040440080404401804044010B5064C2378002B07D1054B002B02D079
:4001C000044800E000BF0123237010BD4801002000000000BC150000084B10B5002B03D00749084800E000BF07480368002B00D110BD064B002BFBD09847F9E70000000078
:400200004C010020BC150000C00000200000000070B5064B1B78064D2C68631C2B6000F00BFA64002C19A08070BDC04660000F406401002010B500F0D7F910BDF0B595B045
:4002400000F062F900F032FA00F08AFC584800F06BFA62B6002400F061FA00F073FAFF2000F04AFC00F04EFCF728FBD80022514B1A6000F0F7F900F0FFF900F0C1F9FF207E
:4002800000F0E0F9FF2000F0D1F9012000F01EFA00F03EFA00F0DCF90A28FBD8002000F015FA444B1B68444A5021684600F048FD6846FFF7BFFF0023012117E04A1E3D4DDE
:4002C0005200AA180420125E480028180425405F121AC220FF30824201DC002201E0802212065B081343212904DC0131314A1668B142E3DB032E01DC012702E001246442C9
:400300000027212E18DD180A190C1D0EFF2216008643300016001E4070401140AA434A40024305D11C02FF22120214400C4303E0002F01D101246442204A5021684600F08B
:40034000FFFC6846FFF776FF1D4D2BE022B2934227D1AB781B0705D5012000F005FA1948FFF768FFAB785B0705D5012000F014FA1548FFF75FFFAB789B0705D5012000F087
:40038000E7F91248FFF756FFAB78DB0705D5012000F0F6F90E48FFF74DFF0E48FFF74AFF59E704350022AB5E002BCFD153E7C0461102000064010020E8150000F81500005B
:4003C000C01500000016000004160000081600000C160000F4150000F0B50025002711E0BB00C658F3B2FF22964308E06A008A181478A419527822700135013BDBB2002B92
:40040000F4D10137072FEBD9F0BDC04610B50A00002100F08DFC10BD10B500F05DFC03680C2B00D1FEE7FEE710B50300084A1068C318084A9A1A802A02DC054A136005E0EF
:4004400000F04AFC0C2303600120404210BDC046C40000206802002070B50F4E0F4D13E029686B68AC68002202E001C901C30432A242FAD1E868002202E0002102C30432A0
:400480008242FAD11035013E002EE9D100F02AFCFFF7D4FEFEE7C04601000000EC17000010B500230AE0032B03D89A000949505800E009489900094A885001332F2BF2D9B7
:4004C000FFF7FEFD8022D205116801230B43136010BDC04600000000190400000000002010B500F06FF810BD10B500F01DF810BD10B5044A1368802109060B431360FFF7AF
:40050000EFFF10BD0000064010B5064B1B78002B04D1FFF7E9FF0122024B1A70FFF7E8FF10BDC04630020020134A144B1A600023134A13601349144A1160144A14490A60BE
:4005400007201449086014490B6004381349086013490A60134A1360134A1360134A1360134A1360134A1360134A1360134A13601268134B1A8070470900000200000640D7
:400580004000064003000A004800064007000080000306400403064010030640440006400002064004020640880E0640C80E0640480F0640080F0640C80F0640880F06409A
:4005C0003202002005490B68F0229343603A13430B60034B1A88034B1A6070471000014032020020880F064070B50500002402E000F0D8FA0134285D0028F9D170BDC046E1
:40060000034A117880235B420B43DBB21370704770000F40014B18707047C04680000F40014B1878C0B2704760000F40014B18707047C04620000F40014B1878C0B27047B7
:4006400040000F40014B18707047C04600000F40024B1B78024B1878C0B2704700000F4040000F4010B501E0FFF7E6FFFFF7D8FF0307F9D410BDC04610B5FF20FFF7D6FFA0
:40068000FF20FFF7DFFF00F085FA074A117810230B43DBB2137000F081FAFFF7E3FF0020FFF7B8FF10BDC04690000F4010B5064B1B78002B04D1FFF7DFFF0122024B1A7034
:4006C000FFF79EFF10BDC0463402002004490A68D2B210239A430001184010430860704700020440014B18647047C0460000002010B5040000F04EFA044A1368C0218B43BC
:40070000A4011C43146000F049FA10BD00E400E00122014B1A60704700E100E00122014B1A60704780E100E010B50400FFF7F6FF2000FFF7D7FF0320FFF7DAFFFFF7E8FFCC
:4007400010BDC0460122014B1A60704780E200E0044A1368DBB201218B430840184310607047C0460002044004490A68D2B202239A434000184010430860704700020440D3
:4007800004490A68D2B204239A43800018401043086070470002044004490A68D2B208239A43C0001840104308607047000204401F2318401E3B8340014A13607047C04616
:4007C00000E100E001BE704770B504000D001F2802D90020FFF7F6FF1034A40080239B059C4664442068256070BDC04610B5034B1B7B584300F0C4F910BDC046C8000020BE
:40080000F0B557464E46C0B483B0040000F0C2F90190E71E2D2F74D83F4B1B78DBB29C4208D83E4B1B78DBB29A463D4B1B78DBB2994631E03B4B1B78DBB29C4208D83A4BDC
:400840001B78DBB29A46394B1B78DBB2994623E0374B1B78DBB29C4208D8364B1B78DBB29A46354B1B78DBB2994615E0334B1B78DBB29C4208D8324B1B78DBB29A46314B48
:400880001B78DBB2994607E02F4B1B78DBB29A462E4B1B78DBB299462D4BDE5D2F2E09D92A2C07D919222B4B1A60052000F068F9192503E0274B1D683F231D40B54206D9EA
:4008C000234BDA5D234B1A60052000F059F91F4B9C4664442378DBB21F4A13601F4B52461A601F4B4A461A600520FFF77FFFB5420AD2174BDA5D174B1A60052000F040F9ED
:4009000002E00020FFF75EFF019800F047F903B00CBC91469A46F0BDC0F1FF0FC1F1FF0FC2F1FF0FC3F1FF0FC4F1FF0FC5F1FF0FC6F1FF0FC7F1FF0FC8F1FF0FC9F1FF0F17
:40094000CAF1FF0FCBF1FF0FCCF1FF0FCDF1FF0F641700002CFF0B4028FF0B401CFF0B4020FF0B40034B1868C0231B02184000D00120704700010B4010B500F00BF9044AF9
:400980001368C02109020B43136000F007F910BD00010B4010B500F0FDF808490A68084B1A408024E40122430A600A6813408022120213430B6000F0F1F810BD00010B4066
:4009C000FF3FFFFF70B5050000F0E4F80400FFF7C9FF002803D0FFF7DDFF012100E0002108482840084A1568084B2B40184310601368012901D1FFF7BFFF200000F0CEF802
:400A000070BDC0460404040010020B40FBFBFBFF10B5244B1B685B0715D5234B1B685B070ED5224BD969042001401F4C22688A432260DA698243DA611B69002B00D09847F8
:400A40000420FFF7BFFF174B1B685B0518D5164B1B685B0510D5154BD9698022D2001140114802688A430260D969114A0A40DA615B69002B00D098478020C000FFF7A2FF33
:400A8000084B1B685B030CD5074B1B685B0304D5064B9B69002B00D098478020C002FFF791FF10BD10020B40DC00002038020020FFFBFFFF034A117880235B420B43DBB295
:400AC0001370704771000F40014B18707047C04681000F40014B1878C0B2704761000F40014B18707047C04621000F40014B1878C0B2704741000F40014B18707047C046BF
:400B000001000F40024B1B78024B1878C0B2704701000F4041000F4010B501E0FFF7E6FFFFF7D8FF0307F9D410BDC04610B56B20FFF7D6FF6B20FFF7DFFF00F02BF8074AC9
:400B4000117810230B43DBB2137000F027F8FFF7E3FF0020FFF7B8FF10BDC04691000F4010B5064B1B78002B04D1FFF7DFFF0122024B1A70FFF79EFF10BDC046580200209D
:400B80000230800804D0C0460138FDD1C046C046C0467047EFF3108072B6704780F310887047C046044B1B680F221340082BF9D0024B18607047C04608020640400206400C
:400BC000002243088B4274D303098B425FD3030A8B4244D3030B8B4228D3030C8B420DD3FF22090212BA030C8B4202D31212090265D0030B8B4219D300E0090AC30B8B4284
:400C000001D3CB03C01A5241830B8B4201D38B03C01A5241430B8B4201D34B03C01A5241030B8B4201D30B03C01A5241C30A8B4201D3CB02C01A5241830A8B4201D38B0244
:400C4000C01A5241430A8B4201D34B02C01A5241030A8B4201D30B02C01A5241CDD2C3098B4201D3CB01C01A524183098B4201D38B01C01A524143098B4201D34B01C01AB9
:400C8000524103098B4201D30B01C01A5241C3088B4201D3CB00C01A524183088B4201D38B00C01A524143088B4201D34B00C01A5241411A00D20146524110467047FFE715
:400CC00001B5002000F006F802BDC0460029F7D076E770477047C046014B18687047C046400100200E4B70B500251E000D4CE41AA410A54204D0AB00F35898470135F8E74F
:400D000000F062FD084B00251E00084CE41AA410A54204D0AB00F35898470135F8E770BDD4170000D4170000D4170000DC17000003008218934202D019700133FAE77047A9
:400D40000CB430B5164B9DB00C1E1D6804DA8B2301202B6040421DE0822302A99B008B810023029008619C4200D0631E8B604B6101235B42CB81209A21AB2800019300F0A0
:400D800073F8431C01DA8B232B60002C02D00023029A13701DB030BC08BC02B01847C04640010020F0B58E6885B007000C00039201939E4243D890238A89DB001A423ED00E
:400DC00003250969236801985B1A029363695D43EB0F5D19029B6D1001331B18AB4200D91D00530510D52900380000F041FB061E14D0029A216900F0D0FAA289194B134057
:400E000080221343A38112E02A00380000F090FB061E0CD12169380000F0DEFA0C23402201203B60A38940421343A38117E0029B2661F61826606561019EED1AA560019B0B
:400E4000B34200D21E0032000399206800F0AEFA0020A3689B1BA36023689E19266005B0F0BDC0467FFBFFFFF0B59FB0029005938B890F0016001B0610D50B69002B0DD139
:400E8000402100F0F5FA38603861002804D10C23029A01381360D8E040237B61002306AD6B6120336B761033AB7634002378002B03D1A31B049312D003E0252BF9D00134E6
:400EC000F4E7A31B320039000298FFF76BFF431C00D1B4E06A69049B944663446B612378002B00D1ABE00122002352426A6002A95432521801342B60EB60AB601370AB6567
:400F0000534E21780522300000F03CFA002807D00123801B83402A68013413432B60EFE72B68DA0604D55322202102A8121811701A0704D553222B2102A8121811702278FA
:400F40002A2A03D0099B00200A210EE0059A111D12680591002A01DB099204E05242EA60022213432B6001340BE02278303A092A04D84B4301349B180120F6E7002800D089
:400F8000099323782E2B1ED163782A2B0AD1059B02341A1D1B680592002B01DA01235B42079310E000230A201A0001346B6021783039092904D84243013452180123F6E793
:400FC000002B00D00792234E21780322300000F0D9F9002806D04023801B83402A68013413432B60217806221B48661C297600F0C9F9002812D0194B002B06D10722059BA5
:40100000073393430833059314E005AB00933A00134B2900029800E000BF07E005AB00933A000F4B2900029800F08AF80390039B013304D06B69039A9B186B6135E7BB8920
:401040000B985B0601D5012040421FB0F0BDC046941700009A1700009E17000000000000A50D0000F7B5170001938A680B6900900C00934200DA130022003B6043321278D7
:40108000002A01D001333B6023689B0602D53B6802333B60062523681D401ED0230043331B785A1E9341226892061CD53020E1184331087021005A1C45310978A218433272
:4010C000023311700FE022000123193201990098089EB047431C0ED00135E3683A689B1A9D42F0DBDAE72200019943320098089DA847431C02D10120404220E00623206888
:40110000E1683A6803400025042B03D18D1AEB43DB171D40A3682269934201DD9B1AED180027BD420AD0220001231A3201990098089EB047431CDED00137F2E70020FEBDD8
:40114000F0B58BB006920A0043320793059004920A7E0C00109B6E2A00D1ABE011D8632A22D009D8002A00D1B5E0582A00D0C5E045310A70814A4FE0642A1DD0692A1BD0CD
:40118000BCE0732A00D1AAE009D86F2A29D0702A00D0B3E0202209680A43226037E0752A1FD0782A33D0A9E00E001A684236111D196013683370A4E021681A68080606D492
:4011C000490604D5111D19600023D55E02E0111D19601568002D3BDA2D23049A6D42137036E021681A68080606D4490604D51568111D1960ADB202E0111D196015685F4BFE
:40120000227E039308276F2A1DD00A271BE022007821453211705A4A19680392081D226818600D68100602D4500600D5ADB2D30702D520231A4322601027002D03D12023CA
:4012400022689A4322602300002243331A7002E00A274A4B03936368A360002B09DB0422216891432160002D05D1049E002B11D07BE0002D79D0049E28003900FFF726FD83
:40128000039B013E5B5C280033703900FFF798FC051EF1D1082F09D12368DB0706D563682269934202DC3023013E3370049B9B1B23612BE009681A68080607D4490605D5A7
:4012C000111D19601368A28A1A8004E0111D1960136862691A600023049E236116E01A68111D1960166800216268300000F04AF8002801D0801B6060636803E026004236E8
:401300003270012323610023049A1370079B09AA00932100069B0598FFF7A4FE431C02D10120404227E02369320006990598079DA847431CF4D0236800259B070FD4099BDB
:40134000E068984217DA180015E022000123193206990598079EB047431CE1D00135E368099A9B1A9D42F0DBE9E72600039B42361B7833708EE70BB0F0BDC046A517000070
:40138000B6170000C9B28218904204D003788B4202D00130F8E700207047002310B59A4203D0CC5CC4540133F9E710BD10B5884202D98B18984201D3002305E09B1A013A39
:4013C00008D3995C8154FAE7934203D0CC5CC4540133F9E710BD000070B50500002944D00C1F2368002B00DAE418280000F0D8F81E4A13681100002B02D16360146031E05E
:40140000A3420DD92268A018834203D118685B688218226063600C6024E0A24203D813005A68002AF9D11E689819A0420BD12168711858181960824214D1106852684118C8
:4014400019605A600EE0A04202D90C232B6009E021686018824203D1106852684118216062605C60280000F09CF870BD60020020032370B5CD1C9D43083506000C2D01D20A
:401480000C2501E0002D01DBA94202D90C23336048E0300000F084F8234B1C681A002100002913D00B685B1B0DD40B2B02D90B60CC181EE08C4202D1636813601AE04B68D8
:4014C00063600C0016E00C004968E9E7174C2368002B03D1300000F051F820602900300000F04CF8431C18D00323C41C9C43A0420DD12560300000F054F8200007220B30D6
:40150000231D9043C31A0ED05A42E2500BE0211A300000F033F8431CEBD10C233000336000F03FF8002070BD600200205C020020F8B506000C001500002904D11100FFF744
:4015400097FF040018E0002A03D1FFF745FF2C0012E000F027F885420ED929003000FFF787FF071E07D021002A00FFF716FF21003000FFF731FF3C002000F8BD002370B5CF
:40158000064C050008002360FEF74EFF431C03D12368002B00D02B6070BDC04664020020704770470B1F1A68101F002A04DA891804390B68D018043870470000000000008D
:4015C000B1100200A0100300211001001010060020100000801009001110080000100C008110040000000000696E746572727570742025640D0A000025780D0A0000000019
:40160000424C200042522000464C20004652200000300F40000400400F400004800F810D0F05130115011702230431023301350137043F504045420245EC4720482349FFB2
:401640004AFF4BFF4F0150185280540359045A045B045C105D115F016040624064406540668068806A806C806E80820F84078F059103940198029B02A004A407A705AB01CE
:40168000B207B303B408B704BF40C035C101C5ECC602C807C9FFCAFFCBFFCF01D018D280D401D804D904DA04DB04DC33DD33DF05E040E240E440E540E680E880EA80EC8064
:4016C000EE8007500D080E04164017041D081E041F14200421022258264027102A012F1431023304360237103A803F80400442404548480249054D044F815002520156409E
:40170000574059055AA05D045E805F0172C077407D807E028208C030C260C430CA61CCA3CE18D055D218D6DFDE10B602B7046C028002DA80E2200D02C204B502EE08010AA7
:40174000100A000002000F4051300F4034310F4002330F4004400F4002420F4002430F4002600F40030405060708090A0B0C0E0F101112131415161718191B1C1D1E1F20A5
:4017800021222325262728292A2B2E2F3031323334354300232D302B2000686C4C00656667454647003031323334353637383941424344454600303132333435363738393E
:4017C0006162636465660000F8B5C046F8BC08BC9E467047D9010000A1040000F8B5C046F8BC08BC9E467047B101000000180000C000002088000000200100000000000036
:401800000000000068020020010000000000E02EC05D00001800000000366E0104040400000000000000000000000000000000000000000000000000000000000000000029
:4018400092170000000000000000000000000000000000000000000000000000000000000000000000000000000000000000000000000000000000000000000000000000BF
:40188000E000002000000000000000000000000000000000000000000000000000000000000000000000000000000000000000000000000000000000000000000000000028
:4018C00000000000000000000000000000000000000000000000000000000000000000000000000000000000000000000000000000000000000000000000000000000000E8
:4019000000000000000000000000000000000000000000000000000000000000000000000000000000000000000000000000000000000000000000000000000000000000A7
:401940000000000000000000000000000000000000000000000000000000000000000000000000000000000000000000000000000000000000000000000000000000000067
:401980000000000000000000000000000000000000000000000000000000000000000000000000000000000000000000000000000000000000000000000000000000000027
:0200000490303A
:02000000E96BAA
:0200000490402A
:200000000000000000000000000000000000000000000000000000000000000000000000E0
:0200000490501A
:0C000000000204D81193110104DFFAFE85
:0200000490600A
:0100000001FE
:00000001FF